{
  "_format": "hh-sol-artifact-1",
  "contractName": "Quiz",
  "sourceName": "contracts/Quiz.sol",
  "abi": [
    {
      "inputs": [],
      "stateMutability": "nonpayable",
      "type": "constructor"
    },
    {
      "inputs": [
        {
          "internalType": "string",
          "name": "answer_user",
          "type": "string"
        }
      ],
      "name": "giveAnswer",
      "outputs": [],
      "stateMutability": "nonpayable",
      "type": "function"
    },
    {
      "inputs": [],
      "name": "winner",
      "outputs": [
        {
          "internalType": "string",
          "name": "",
          "type": "string"
        }
      ],
      "stateMutability": "view",
      "type": "function"
    }
  ],
  "bytecode": "0x60806040523480156200001157600080fd5b506040518060400160405280600581526020017f416c69636500000000000000000000000000000000000000000000000000000081525060008073f39fd6e51aad88f6f4ce6ab8827279cfffb9226673ffffffffffffffffffffffffffffffffffffffff1673ffffffffffffffffffffffffffffffffffffffff1681526020019081526020016000209081620000a89190620003c0565b506040518060400160405280600381526020017f426f6200000000000000000000000000000000000000000000000000000000008152506000807370997970c51812dc3a010c7d01b50e0d17dc79c873ffffffffffffffffffffffffffffffffffffffff1673ffffffffffffffffffffffffffffffffffffffff16815260200190815260200160002090816200013f9190620003c0565b50620004a7565b600081519050919050565b7f4e487b7100000000000000000000000000000000000000000000000000000000600052604160045260246000fd5b7f4e487b7100000000000000000000000000000000000000000000000000000000600052602260045260246000fd5b60006002820490506001821680620001c857607f821691505b602082108103620001de57620001dd62000180565b5b50919050565b60008190508160005260206000209050919050565b60006020601f8301049050919050565b600082821b905092915050565b600060088302620002487fffffffffffffffffffffffffffffffffffffffffffffffffffffffffffffffff8262000209565b62000254868362000209565b95508019841693508086168417925050509392505050565b6000819050919050565b6000819050919050565b6000620002a16200029b62000295846200026c565b62000276565b6200026c565b9050919050565b6000819050919050565b620002bd8362000280565b620002d5620002cc82620002a8565b84845462000216565b825550505050565b600090565b620002ec620002dd565b620002f9818484620002b2565b505050565b5b81811015620003215762000315600082620002e2565b600181019050620002ff565b5050565b601f82111562000370576200033a81620001e4565b6200034584620001f9565b8101602085101562000355578190505b6200036d6200036485620001f9565b830182620002fe565b50505b505050565b600082821c905092915050565b6000620003956000198460080262000375565b1980831691505092915050565b6000620003b0838362000382565b9150826002028217905092915050565b620003cb8262000146565b67ffffffffffffffff811115620003e757620003e662000151565b5b620003f38254620001af565b6200040082828562000325565b600060209050601f83116001811462000438576000841562000423578287015190505b6200042f8582620003a2565b8655506200049f565b601f1984166200044886620001e4565b60005b8281101562000472578489015182556001820191506020850194506020810190506200044b565b868310156200049257848901516200048e601f89168262000382565b8355505b6001600288020188555050505b505050505050565b61070080620004b76000396000f3fe608060405234801561001057600080fd5b50600436106100355760003560e01c80628041271461003a578063dfbf53ae14610056575b600080fd5b610054600480360381019061004f919061021b565b610074565b005b61005e61011e565b60405161006b91906102f8565b60405180910390f35b60007f60298f78cc0b47170ba79c10aa3851d7648bd96f2f8e46a19dbc777c36fb0c0060001b90508083836040516020016100b0929190610359565b6040516020818303038152906040528051906020012003610119576000803373ffffffffffffffffffffffffffffffffffffffff1673ffffffffffffffffffffffffffffffffffffffff1681526020019081526020016000206001908161011791906105e2565b505b505050565b6001805461012b906103a1565b80601f0160208091040260200160405190810160405280929190818152602001828054610157906103a1565b80156101a45780601f10610179576101008083540402835291602001916101a4565b820191906000526020600020905b81548152906001019060200180831161018757829003601f168201915b505050505081565b600080fd5b600080fd5b600080fd5b600080fd5b600080fd5b60008083601f8401126101db576101da6101b6565b5b8235905067ffffffffffffffff8111156101f8576101f76101bb565b5b602083019150836001820283011115610214576102136101c0565b5b9250929050565b60008060208385031215610232576102316101ac565b5b600083013567ffffffffffffffff8111156102505761024f6101b1565b5b61025c858286016101c5565b92509250509250929050565b600081519050919050565b600082825260208201905092915050565b60005b838110156102a2578082015181840152602081019050610287565b60008484015250505050565b6000601f19601f8301169050919050565b60006102ca82610268565b6102d48185610273565b93506102e4818560208601610284565b6102ed816102ae565b840191505092915050565b6000602082019050818103600083015261031281846102bf565b905092915050565b600081905092915050565b82818337600083830152505050565b6000610340838561031a565b935061034d838584610325565b82840190509392505050565b6000610366828486610334565b91508190509392505050565b7f4e487b7100000000000000000000000000000000000000000000000000000000600052602260045260246000fd5b600060028204905060018216806103b957607f821691505b6020821081036103cc576103cb610372565b5b50919050565b6000815490506103e1816103a1565b9050919050565b7f4e487b7100000000000000000000000000000000000000000000000000000000600052604160045260246000fd5b60008190508160005260206000209050919050565b60008190508160005260206000209050919050565b60006020601f8301049050919050565b600082821b905092915050565b60006008830261048e7fffffffffffffffffffffffffffffffffffffffffffffffffffffffffffffffff82610451565b6104988683610451565b95508019841693508086168417925050509392505050565b6000819050919050565b6000819050919050565b60006104df6104da6104d5846104b0565b6104ba565b6104b0565b9050919050565b6000819050919050565b6104f9836104c4565b61050d610505826104e6565b84845461045e565b825550505050565b600090565b610522610515565b61052d8184846104f0565b505050565b5b818110156105515761054660008261051a565b600181019050610533565b5050565b601f8211156105965761056781610417565b61057084610441565b8101602085101561057f578190505b61059361058b85610441565b830182610532565b50505b505050565b600082821c905092915050565b60006105b96000198460080261059b565b1980831691505092915050565b60006105d283836105a8565b9150826002028217905092915050565b8181036105f05750506106c8565b6105f9826103d2565b67ffffffffffffffff811115610612576106116103e8565b5b61061c82546103a1565b610627828285610555565b6000601f8311600181146106565760008415610644578287015490505b61064e85826105c6565b8655506106c1565b601f1984166106648761042c565b965061066f86610417565b60005b8281101561069757848901548255600182019150600185019450602081019050610672565b868310156106b457848901546106b0601f8916826105a8565b8355505b6001600288020188555050505b5050505050505b56fea26469706673582212208a1abbf90f00611670e759b06eeb771ccfcfd6e35dd35e0dc9c804a106a2126864736f6c63430008120033",
  "linkReferences": {},
  "deployedLinkReferences": {}
}